:020000040800F2
:100000006815002029020008650200086702000840
:10001000690200086B0200086D0200080000000081
:100020000000000000000000000000006F02000857
:100030007102000800000000730200085D11000852
:1000400077020008770200087702000877020008AC
:10005000770200087702000877020008770200089C
:10006000770200087702000877020008770200088C
:10007000770200087702000877020008770200087C
:10008000770200087702000877020008770200086C
:10009000770200087702000877020008770200085C
:1000A000770200087702000877020008770200084C
:1000B000770200087702000877020008770200083C
:1000C000770200087702000877020008770200082C
:1000D000770200087702000877020008770200081C
:1000E000770200087702000877020008770200080C
:1000F00077020008770200087702000877020008FC
:1001000077020008770200087702000877020008EB
:1001100077020008770200087702000877020008DB
:1001200077020008770200087702000877020008CB
:1001300077020008770200087702000877020008BB
:1001400077020008770200087702000877020008AB
:10015000770200087702000877020008770200089B
:10016000770200087702000877020008770200088B
:1001700077020008770200087702000800000000FC
:10018000770200087702000800F002F800F03CF85F
:100190000AA090E8000C82448344AAF10107DA45E2
:1001A00001D100F031F8AFF2090EBAE80F0013F0F8
:1001B000010F18BFFB1A43F0010318471414000085
:1001C00034140000103A24BF78C878C1FAD8520716
:1001D00024BF30C830C144BF04680C6070470000C1
:1001E0000023002400250026103A28BF78C1FBD840
:1001F000520728BF30C148BF0B6070471FB501F0E0
:10020000BDF91FBD10B510BD00F053F81146FFF742
:10021000F5FF01F031F800F071F803B4FFF7F2FFD9
:1002200003BC00F079F8000016481749174B9942B3
:100230003CBF50F8042B41F8042BF8D314494FF07D
:1002400000028B4238BF43F8042BFAD3DFF8440096
:10025000016841F470010160BFF34F8FBFF36F8FEE
:100260000D480047FEE7FEE7FEE7FEE7FEE7FEE794
:10027000FEE7FEE7FEE7FEE708480949094A0A4BA0
:1002800070470000F0150008000000200800002062
:100290006815002088ED00E0890100086800002052
:1002A0006815002068050020680500207047704729
:1002B0007047754600F02CF8AE4605006946534677
:1002C00020F00700854618B020B5FFF7D5FFBDE840
:1002D00020404FF000064FF000074FF000084FF0AD
:1002E000000B21F00701AC46ACE8C009ACE8C0093E
:1002F000ACE8C009ACE8C0098D46704710B50446AB
:10030000AFF300802046BDE81040FFF786BF000035
:10031000004870470800002001491820ABBEFEE7E6
:1003200026000200704700000348406940F48070D6
:1003300001494861704700000010004803484069C7
:1003400080F4807001494861704700000010004847
:10035000002000BF0B49096801F004010029F9D110
:10036000002006E0002207490C3141F82020411C02
:10037000C8B20F28F6DD0349096841F00401014ABB
:1003800011607047082400402F48806D00F08050B5
:1003900028B92D48806D40F080502B4988652A4847
:1003A000806D2A48006800F4807060B927480068B2
:1003B00040F480702549086000BF2448006800F4BC
:1003C00080700028F9D020489030006820F00500A7
:1003D0001D49C1F890000846D0F8900040F48030E4
:1003E000C1F890000846D0F8900020F48030C1F8A1
:1003F000900007E014489030006840F00100124976
:10040000C1F8900010489030006800F00200002809
:10041000F0D00D489030006820F440700A49C1F8CF
:1004200090000846D0F8900040F48070C1F8900029
:100430000846806D20F0805088650846806D40F445
:100440000070886570470000001002400070004096
:100450003648006820F060003449086008460068AB
:1004600040F0400008600846006820F01C0008606A
:100470000846006840F0080008600846006840F040
:1004800010000860081D006820F4E050091D086095
:100490000846006840F4806008600846006840F440
:1004A000006008600846006840F480500860084614
:1004B000006820F0700008600846006840F01000F6
:1004C00008600846006840F02000086008460068A0
:1004D00040F040000860081F006820F08000091FFD
:1004E00008600846006820F00200086000BF0F485E
:1004F0000830006800F020000028F8D00B480068A1
:1005000040F001000949086000BF08480830006851
:1005100000F001000028F8D000BF0448083000684F
:1005200000F010000028F8D07047000000240040C0
:10053000F0B50C4615460021002600220778342F1E
:1005400053D00FDCA7F12007142F5AD2DFE807F0B1
:100550002359595959435959282A253B5938593E45
:10056000494A4B4C642F1FD008DCA7F13507052FF3
:1005700047D2DFE807F03B3C3D3E3F00B02F27D09D
:1005800004DC6D2F13D06E2F3BD113E0B52F14D0A8
:10059000FF2F36D122E000214CE04AF2DD0149E094
:1005A000282147E0112145E04FF4734142E04BF22E
:1005B00010213FE042F210213CE046F2840139E094
:1005C0004FF4204136E04AF2140133E0C02131E01B
:1005D0004FF46C412EE04FF433412BE04FF6DD71C8
:1005E00028E000BF00BF00BF00BF00BF00BF00BFCA
:1005F00000BF00BF0778303FDFF864C03CF8171039
:1006000018E007785B2F08DA0778402F05DD0778B8
:10061000413FDFF850C03CF8171007787B2F08DA0D
:100620000778602F05DD0778613FDFF838C03CF8B8
:10063000171000BF00BF0CB141F002010DB141F035
:1006400020010C26002208E041FA06F707F00F0708
:100650009F54371FFEB2571CFAB2042AF4DBF0BDD8
:10066000BA1500088615000800B500F007F8FFF776
:100670008BFEFFF7EDFEFFF76BFE00BD5348C06C2D
:1006800040F001005149C8640846C06C40F00200C7
:10069000C8640846C06C40F00400C8640846C06CDA
:1006A00040F00800C8644FF0904000684849084096
:1006B0004FF09041086008460068464908434FF0F3
:1006C000904108600846006A20F07F4008620846B2
:1006D000006A40F03B4008620846406A3E490840D4
:1006E0004FF0904148620846406A3C4908434FF049
:1006F000904148623A4800683A49084038490860E1
:1007000008460068384908433549086034482030B5
:10071000006800F0FF203249203108600846006878
:1007200040F0BB1008602E48406A4FF60F71084039
:100730002B4948620846406A2C49084328494862C8
:100740002B4800682B490840294908600846006882
:100750002949084326490860254820300068C0F32D
:100760000B002349203108600846006823490843EC
:100770001F49203108601E48406A20F00F011C48C4
:100780004162406A40F00B01194841621C48006810
:1007900080B21B490860084600681A490843184996
:1007A0000860174820300068154920310860084665
:1007B000006808601248406A002111484162406A9E
:1007C00040F0BB310E48416270470000001002400B
:1007D000FF0FC03F00A02A8000F0FF0FBB0B00B04E
:1007E00000040048F0F0F3000A0A08AAB000BBBBFE
:1007F000000800483F00FCFF80AA020000B0BBBB1D
:10080000000C00480000AAAAF8B505460E46174697
:100810001C466B463A4631462846FFF789FE00BF24
:10082000FE48006800F004000028F9D1062C7DD2B3
:10083000DFE804F00398FCFBFAF9F8480C30006894
:10084000F7490840F5490C310860F4480838C06998
:10085000F3490840F1490839C8610846406AF0493F
:100860000840EE49083948620846C06AEC49084029
:10087000EA490839C8629DF80000C007C00E9DF81B
:100880000010C1F3400140EAC1509DF80010C1F3CF
:10089000800140EA81509DF80010C1F3C00140EA98
:1008A000C100DE490C3109680843DC490C3108609D
:1008B0009DF80100C007C00E9DF80110C1F3400172
:1008C00040EAC1509DF80110C1F3800140EA815017
:1008D0009DF80110C1F3C00140EAC100CF490839B9
:1008E000C9690843CD490839C8619DF80200C007AD
:1008F000C00E9DF80210C1F3400140EAC1509DF8BE
:100900000210C1F3800140EA81509DF80210C1F34A
:10091000C00140EAC100C1490839496A0843BF49DA
:10092000083948629DF80300C00700E02EE3C00EBE
:100930009DF80310C1F3400140EAC1509DF8031037
:10094000C1F3800140EA81509DF80310C1F3C0015A
:1009500040EAC100B1490839C96A0843AF490839BA
:10096000C86214E3AD480C30006843F2600188436C
:10097000AA490C310860A9480838C06943F26001EF
:100980008843A6490839C8610846406A43F26001B5
:100990008843A249083948620846C06A43F26001A8
:1009A00088439E490839C8629DF80000C007400E80
:1009B0009DF80010C1F3400140EA41309DF800105D
:1009C000C1F3800140EA01309DF80010C1F3C0017D
:1009D00040EA411091490C31096808438F490C31B4
:1009E00008609DF80100C007400E9DF80110C1F39A
:1009F000400140EA41309DF80110C1F3800140EA16
:100A000001309DF80110C1F3C00140EA4110834953
:100A10000839C969084381490839C8619DF802004D
:100A2000C007400E03E028E27CE1CAE036E09DF812
:100A30000210C1F3400140EA41309DF80210C1F3B9
:100A4000800140EA01309DF80210C1F3C00140EA84
:100A5000411072490839496A0843704908394862A7
:100A60009DF80300C007400E9DF80310C1F340013C
:100A700040EA41309DF80310C1F3800140EA0130A3
:100A80009DF80310C1F3C00140EA411063490839E1
:100A9000C96A084361490839C86278E25F480C3086
:100AA0000068604908405D490C3108605B480838BF
:100AB000C0695C49084059490839C8610846406A1C
:100AC000584908405549083948620846C06A55499E
:100AD000084052490839C8629DF80000C007000C60
:100AE0009DF80010C1F3400140EA41709DF80010EC
:100AF000C1F3800140EA01709DF80010C1F3C0010C
:100B000040EA813045490C310968084343490C31BA
:100B100008609DF80100C007000C9DF80110C1F3AA
:100B2000400140EA41709DF80110C1F3800140EAA4
:100B300001709DF80110C1F3C00140EA81303749CE
:100B40000839C969084335490839C8619DF8020068
:100B5000C007000C9DF80210C1F3400140EA41704B
:100B60009DF80210C1F3800140EA01709DF8021067
:100B7000C1F3C00140EA813028490839496A084375
:100B80002649083948629DF80300C007000C9DF80B
:100B90000310C1F3400140EA41709DF80310C1F316
:100BA000800140EA01709DF80310C1F3C00140EAE2
:100BB00081301A490839C96A084318490839C86296
:100BC000E5E116480C30006820F0404013490C3134
:100BD000086012480838806920F003010F4808387F
:100BE0008161C06920F040410C480838C161006A49
:100BF00020F00301094808380162406A20F04041B2
:100C0000064808384162806A20F00301034808382A
:100C10008162C06A20F04041004805E0082400409D
:100C2000E7FF3FFFFF3FFFCF0838C162006B20F0B6
:100C30000301DD4801639DF80000C0079DF8001026
:100C4000C1F3C00140EA8170D749143109680843F3
:100C5000D549143108609DF80000C0F380009DF86C
:100C60000010C1F3400140EA4100CF4989690843BF
:100C7000CD4988619DF80100C0079DF80110C1F3BE
:100C8000C00140EA8170C849C9690843C649C861C2
:100C90009DF80100C0F380009DF80110C1F34001F0
:100CA00040EA4100C049096A0843BF4908629DF80B
:100CB0000200C0079DF80210C1F3C00140EA817034
:100CC000B949496A0843B84948629DF80200C0F32F
:100CD00080009DF80210C1F3400140EA4100B24992
:100CE000896A0843B04988629DF80300C0079DF8EF
:100CF0000310C1F3C00140EA8170AB49C96A0843DF
:100D0000A949C8629DF80300C0F380009DF8031054
:100D1000C1F3400140EA4100A349096B0843A249DD
:100D2000086334E1A0481430006820F040709E4908
:100D3000143108609C48806920F00C019A48816158
:100D4000C06920F040719848C161006A20F00C0130
:100D500095480162406A20F0407193484162806A80
:100D600020F00C0190488162C06A20F040718E48EA
:100D7000C162006B20F00C018B4801639DF80000FC
:100D8000C0F3400040069DF80010C1F3800140EA26
:100D900001608549143109680843834914310860AA
:100DA0009DF80000C007000F9DF80010C1F3C001BE
:100DB00040EA81007C49896908437B4988619DF844
:100DC0000100C0F3400040069DF80110C1F380010E
:100DD00040EA01607449C96908437349C8619DF8D4
:100DE0000100C007000F9DF80110C1F3C00140EAE7
:100DF00081006D49096A08436B4908629DF8020049
:100E0000C0F3400040069DF80210C1F3800140EAA3
:100E100001606549496A0843634948629DF80200D8
:100E2000C007000F9DF80210C1F3C00140EA810025
:100E30005D49896A08435C4988629DF80300C0F3F4
:100E4000400040069DF80310C1F3800140EA0160B4
:100E50005549C96A08435449C8629DF80300C00750
:100E6000000F9DF80310C1F3C00140EA81004E4914
:100E7000096B08434C49086389E04B48143000680B
:100E80004A4908404849143108604748C069474901
:100E900008404549C8610846406A444908404249FB
:100EA00048620846C06A414908403F49C8629DF807
:100EB0000000C007800B9DF80010C1F3400140EA1C
:100EC00001209DF80010C1F3800140EA41209DF807
:100ED0000010C1F3C00140EA816033491431096850
:100EE00008433149143108609DF80100C007800BA8
:100EF0009DF80110C1F3400140EA01209DF8011066
:100F0000C1F3800140EA41209DF80110C1F3C00106
:100F100040EA81602449C96908432349C8619DF8B2
:100F20000200C007800B9DF80210C1F3400140EAA7
:100F300001209DF80210C1F3800140EA41209DF894
:100F40000210C1F3C00140EA81601749496A0843B1
:100F5000154948629DF80300C007800B9DF80310F7
:100F6000C1F3400140EA01209DF80310C1F3800164
:100F700040EA41209DF80310C1F3C00140EA8160BE
:100F80000949C96A08430849C86200E000BF00BFB8
:100F900000F00EF804480830006840F004000249F0
:100FA00008310860F8BD000000240040FFFCFDFB94
:100FB00000BF2748006800F004000028F9D1244849
:100FC0000838406A234908402149083948620846E0
:100FD000C06A204908401E490839C8621E48007886
:100FE00000F0010030B10846C06A40F48071184832
:100FF0000838C1621848007800F0020038B114487F
:101000000838406A40F4807111480838416212483B
:10101000007800F0040038B10D480838C06A40F08C
:1010200000710B480838C1620B48007800F00800D6
:1010300038B107480838406A40F000710448083861
:1010400041620348006840F00400014908607047AD
:1010500008240040FFFEFFFD040000202548C06C6E
:1010600040F012002349C8642348006820F0300093
:10107000214908600846006840F0100008601E48DA
:101080000830006820F030001B490831086008462D
:10109000006840F030000860081F006820F004007D
:1010A000091F086014480C30006820F03000124915
:1010B0000C3108601148006820F440300F49086086
:1010C0000846006840F4803008600846806820F4D4
:1010D000403088600846806840F4403088600846A8
:1010E000406820F4807048600846C06820F44030B2
:1010F000C86070470010024000040048001000481B
:1011000010B5FFF7ABFFFFF70FF900F013F8084831
:1011100000F058F8FFF712F94CF2503000F052F896
:1011200000F012F84CF2503000F04CF810BD000006
:1011300090D003000348006820F0040001490860D3
:1011400070470000140400480348006880F0040061
:101150000149086070470000140400480248006814
:10116000401E0149086070470000002014480068D4
:1011700040F00100124908600846806820F0030032
:10118000886000BF0E48006800F002000028F9D017
:101190000B48006820F0F000094908600846006824
:1011A00040F0700008600846006840F008000860E1
:1011B00000BF0348006800F002000028F9D0704723
:1011C00000100240002100E0491C8142FCDB704716
:1011D00070B505460C46002600F042F888B185B986
:1011E00000BF0BE0284600F00FF905462068FFF726
:1011F000E9FF2068A0F57A702060761C052EF1DBEF
:1012000007E000F02DF820B91DB9284600F0ECF8F1
:101210000546284670BD70B505460C46002600F010
:1012200025F890B1052D10D100BF0BE0284600F045
:10123000DBF805462068FFF7C5FF2068A0F57A7047
:101240002060761C052EF1DB08E000F00FF828B9CD
:10125000052D03D1284600F0D7F80546284670BD75
:101260004FF09040006900F0010070474FF090404F
:101270000069C0F3C00070471FB50020039000252F
:1012800040480290002001900090FFF76FFFFFF7A9
:10129000EBF93D48C06C40F001003B49C8644FF099
:1012A0009040006820F003004FF09041086008462D
:1012B000006820F0C00008600846C06820F0030005
:1012C000C8600846C06820F0C000C8600846C06812
:1012D00040F00200C8600846C06840F08000C86066
:1012E00000231A46194629A0FFF78EFA48E003E0CA
:1012F000FFF7B6FF00B10125002DF9D002A9039830
:10130000FFF766FF039002A90398FFF784FF03909D
:101310000398401CC8B90098401C0090DDE90010FB
:1013200000F0F2F80098092808D119A405E0282156
:10133000204600F079F8FFF70BF8F8E71148029023
:1013400002A9022000F0B4F803900398062817D1F0
:101350000198401C0190DDE9001000F0D5F80198DB
:10136000092806D115A403E02821204600F05CF8E6
:10137000FAE70448029002A9012000F099F80390CE
:10138000B5E70000E0930400001002402D000000CB
:10139000504C4159455220322057494E532E20502F
:1013A0005245535320524553455420544F20504CDE
:1013B000415920414741494E00000000504C4159DD
:1013C000455220312057494E532E205052455353F9
:1013D00020524553455420544F20504C41592041F0
:1013E0004741494E0000000010B50446FEF7B0FF2B
:1013F000601EC3B20022114602A0FFF705FA601E6C
:1014000010BD00002D00000010B50446FEF7A0FF3F
:10141000601CC3B20022114602A0FFF7F5F9601C60
:1014200010BD00002D0000002DE9F047064688465B
:1014300037464FF00009CA46002433E0002528E073
:10144000387820443A2802D14FF0010A01E04FF0E9
:10145000000A387820442E2802D14FF0010901E01B
:101460004FF00009EBB2BAF1000F02D04FF0010CBF
:1014700001E04FF0000C6246B9F1000F02D04FF0CE
:10148000010C01E04FF0000C61467819FFF7BCF940
:101490006D1C062DD4DB3719FFF732FE0348FFF72A
:1014A00091FE641C4445C9DBBDE8F08720A107001C
:1014B00070B505460E46012D11D100231A46194676
:1014C00010A0FFF7A1F9002400BFFFF7C9FE002814
:1014D000FBD031462046FFF77BFE044610E0052393
:1014E0000022114607A0FFF78FF9052400BFFFF780
:1014F000BDFE0028FBD031462046FFF78CFE044697
:10150000204670BD2D0000007CB504460D4605F157
:101510003000C0B2019004F13000C0B2009001234D
:101520000022114613A0FFF76FF903230022114692
:1015300010A0FFF769F90423002211460DA0FFF760
:1015400063F905230022114601A8FFF75DF9022384
:101550000122002107A0FFF757F900231A46194678
:101560006846FFF751F90448FFF72CFEFEF7F0FE3E
:101570007CBD000000000000404B4C004FF040706C
:10158000E1EE100A704700FE1467001D1447009D2D
:10159000009C003F00FA1400005341980019485A7B
:1015A000095A005F00FC015F01FC00AF1404005BFE
:1015B000C018815AC9005800C005005F004200F5FC
:1015C000006700EA00AF00BF004600FF00EF000028
:1015D000F01500080000002008000000C401000809
:1015E000F81500080800002060150000E001000860
:0815F0000000000000000000F3
:040000050800018965
:00000001FF
